{
  "contractName": "CircuitBreaker",
  "abi": [
    {
      "constant": true,
      "inputs": [],
      "name": "stopped",
      "outputs": [
        {
          "internalType": "bool",
          "name": "",
          "type": "bool"
        }
      ],
      "payable": false,
      "stateMutability": "view",
      "type": "function"
    },
    {
      "constant": false,
      "inputs": [],
      "name": "deposit",
      "outputs": [],
      "payable": false,
      "stateMutability": "nonpayable",
      "type": "function"
    },
    {
      "constant": false,
      "inputs": [],
      "name": "withdraw",
      "outputs": [],
      "payable": false,
      "stateMutability": "nonpayable",
      "type": "function"
    }
  ],
  "bytecode": "0x608060405260008060006101000a81548160ff02191690831515021790555034801561002a57600080fd5b5060eb806100396000396000f3fe6080604052348015600f57600080fd5b5060043610603c5760003560e01c80633ccfd60b14604157806375f12b21146049578063d0e30db0146069575b600080fd5b60476071565b005b604f608a565b604051808215151515815260200191505060405180910390f35b606f609c565b005b6000809054906101000a900460ff16608857600080fd5b565b6000809054906101000a900460ff1681565b6000809054906101000a900460ff161560b457600080fd5b56fea265627a7a72315820b4556946efd964e22911a6ddf1cba7d9dbd3037364329b53dfd382e14c72b6f264736f6c63430005100032",
  "source": "pragma solidity ^0.5.0;\r\n\r\ncontract CircuitBreaker {\r\n\r\n    bool public stopped = false;\r\n\r\n    modifier stopInEmergency {\r\n        require(!stopped);\r\n        _;\r\n    }\r\n    modifier onlyInEmergency {\r\n        require(stopped);\r\n        _;\r\n    }\r\n\r\n    function deposit() stopInEmergency public {\r\n        \r\n    }\r\n    function withdraw() onlyInEmergency public {\r\n        \r\n    } \r\n}",
  "sourcePath": "C:\\Users\\Rosie\\Desktop\\marketplace\\src\\contracts\\CircuitBreaker.sol",
  "compiler": {
    "name": "solc",
    "version": "0.5.16+commit.9c3226ce.Emscripten.clang"
  },
  "schemaVersion": "3.3.2",
  "updatedAt": "2020-12-30T21:14:32.928Z",
  "devdoc": {
    "methods": {}
  },
  "userdoc": {
    "methods": {}
  }
}