{
  "contractName": "Marketplace",
  "abi": [
    {
      "inputs": [],
      "payable": false,
      "stateMutability": "nonpayable",
      "type": "constructor"
    },
    {
      "anonymous": false,
      "inputs": [
        {
          "indexed": false,
          "internalType": "uint256",
          "name": "id",
          "type": "uint256"
        },
        {
          "indexed": false,
          "internalType": "string",
          "name": "name",
          "type": "string"
        },
        {
          "indexed": false,
          "internalType": "uint256",
          "name": "price",
          "type": "uint256"
        },
        {
          "indexed": false,
          "internalType": "address payable",
          "name": "owner",
          "type": "address"
        },
        {
          "indexed": false,
          "internalType": "bool",
          "name": "purchased",
          "type": "bool"
        }
      ],
      "name": "PortraitCreated",
      "type": "event"
    },
    {
      "anonymous": false,
      "inputs": [
        {
          "indexed": false,
          "internalType": "uint256",
          "name": "id",
          "type": "uint256"
        },
        {
          "indexed": false,
          "internalType": "string",
          "name": "name",
          "type": "string"
        },
        {
          "indexed": false,
          "internalType": "uint256",
          "name": "price",
          "type": "uint256"
        },
        {
          "indexed": false,
          "internalType": "address payable",
          "name": "owner",
          "type": "address"
        },
        {
          "indexed": false,
          "internalType": "bool",
          "name": "purchased",
          "type": "bool"
        }
      ],
      "name": "PortraitPurchased",
      "type": "event"
    },
    {
      "constant": true,
      "inputs": [],
      "name": "name",
      "outputs": [
        {
          "internalType": "string",
          "name": "",
          "type": "string"
        }
      ],
      "payable": false,
      "stateMutability": "view",
      "type": "function"
    },
    {
      "constant": true,
      "inputs": [],
      "name": "nbCreatedPortrait",
      "outputs": [
        {
          "internalType": "uint256",
          "name": "",
          "type": "uint256"
        }
      ],
      "payable": false,
      "stateMutability": "view",
      "type": "function"
    },
    {
      "constant": true,
      "inputs": [],
      "name": "nbPurchasedPortrait",
      "outputs": [
        {
          "internalType": "uint256",
          "name": "",
          "type": "uint256"
        }
      ],
      "payable": false,
      "stateMutability": "view",
      "type": "function"
    },
    {
      "constant": true,
      "inputs": [],
      "name": "portraitCount",
      "outputs": [
        {
          "internalType": "uint256",
          "name": "",
          "type": "uint256"
        }
      ],
      "payable": false,
      "stateMutability": "view",
      "type": "function"
    },
    {
      "constant": true,
      "inputs": [
        {
          "internalType": "uint256",
          "name": "",
          "type": "uint256"
        }
      ],
      "name": "portraits",
      "outputs": [
        {
          "internalType": "uint256",
          "name": "id",
          "type": "uint256"
        },
        {
          "internalType": "string",
          "name": "name",
          "type": "string"
        },
        {
          "internalType": "uint256",
          "name": "price",
          "type": "uint256"
        },
        {
          "internalType": "address payable",
          "name": "owner",
          "type": "address"
        },
        {
          "internalType": "bool",
          "name": "purchased",
          "type": "bool"
        }
      ],
      "payable": false,
      "stateMutability": "view",
      "type": "function"
    },
    {
      "constant": false,
      "inputs": [
        {
          "internalType": "string",
          "name": "_name",
          "type": "string"
        },
        {
          "internalType": "uint256",
          "name": "_price",
          "type": "uint256"
        }
      ],
      "name": "createPortrait",
      "outputs": [],
      "payable": false,
      "stateMutability": "nonpayable",
      "type": "function"
    },
    {
      "constant": false,
      "inputs": [
        {
          "internalType": "uint256",
          "name": "_id",
          "type": "uint256"
        }
      ],
      "name": "purchasePortrait",
      "outputs": [],
      "payable": true,
      "stateMutability": "payable",
      "type": "function"
    }
  ],
  "bytecode": "0x6080604052600080556000600155600060035534801561001e57600080fd5b506040518060400160405280601481526020017f506f727472616974204d61726b6574706c6163650000000000000000000000008152506002908051906020019061006a929190610070565b50610115565b828054600181600116156101000203166002900490600052602060002090601f016020900481019282601f106100b157805160ff19168380011785556100df565b828001600101855582156100df579182015b828111156100de5782518255916020019190600101906100c3565b5b5090506100ec91906100f0565b5090565b61011291905b8082111561010e5760008160009055506001016100f6565b5090565b90565b610ee3806101246000396000f3fe6080604052600436106100705760003560e01c8063327841da1161004e578063327841da1461020257806390296b4f1461022d578063bc5ea73d1461025b578063c62df5851461028657610070565b806306fdde03146100755780631fabd1bf146101055780632ebcccbf14610130575b600080fd5b34801561008157600080fd5b5061008a610386565b6040518080602001828103825283818151815260200191508051906020019080838360005b838110156100ca5780820151818401526020810190506100af565b50505050905090810190601f1680156100f75780820380516001836020036101000a031916815260200191505b509250505060405180910390f35b34801561011157600080fd5b5061011a610424565b6040518082815260200191505060405180910390f35b34801561013c57600080fd5b506102006004803603604081101561015357600080fd5b810190808035906020019064010000000081111561017057600080fd5b82018360208201111561018257600080fd5b803590602001918460018302840111640100000000831117156101a457600080fd5b91908080601f016020809104026020016040519081016040528093929190818152602001838380828437600081840152601f19601f8201169050808301925050505050505091929192908035906020019092919050505061042a565b005b34801561020e57600080fd5b506102176106db565b6040518082815260200191505060405180910390f35b6102596004803603602081101561024357600080fd5b81019080803590602001909291905050506106e1565b005b34801561026757600080fd5b50610270610b90565b6040518082815260200191505060405180910390f35b34801561029257600080fd5b506102bf600480360360208110156102a957600080fd5b8101908080359060200190929190505050610b96565b60405180868152602001806020018581526020018473ffffffffffffffffffffffffffffffffffffffff1673ffffffffffffffffffffffffffffffffffffffff16815260200183151515158152602001828103825286818151815260200191508051906020019080838360005b8381101561034757808201518184015260208101905061032c565b50505050905090810190601f1680156103745780820380516001836020036101000a031916815260200191505b50965050505050505060405180910390f35b60028054600181600116156101000203166002900480601f01602080910402602001604051908101604052809291908181526020018280546001816001161561010002031660029004801561041c5780601f106103f15761010080835404028352916020019161041c565b820191906000526020600020905b8154815290600101906020018083116103ff57829003601f168201915b505050505081565b60005481565b600082511161043857600080fd5b6000811161044557600080fd5b6003600081548092919060010191905055506040518060a0016040528060035481526020018381526020018281526020013373ffffffffffffffffffffffffffffffffffffffff168152602001600015158152506004600060035481526020019081526020016000206000820151816000015560208201518160010190805190602001906104d4929190610c91565b506040820151816002015560608201518160030160006101000a81548173ffffffffffffffffffffffffffffffffffffffff021916908373ffffffffffffffffffffffffffffffffffffffff16021790555060808201518160030160146101000a81548160ff0219169083151502179055509050507f04b3d7a573d86d28b86f6005d2f92244522d10b217a4825f2329159ff1391fa8600354838333600060405180868152602001806020018581526020018473ffffffffffffffffffffffffffffffffffffffff1673ffffffffffffffffffffffffffffffffffffffff16815260200183151515158152602001828103825286818151815260200191508051906020019080838360005b838110156105fa5780820151818401526020810190506105df565b50505050905090810190601f1680156106275780820380516001836020036101000a031916815260200191505b50965050505050505060405180910390a16000808154809291906001019190505550600060405161065790610d11565b604051809103906000f080158015610673573d6000803e3d6000fd5b5090508073ffffffffffffffffffffffffffffffffffffffff1663d0e30db06040518163ffffffff1660e01b8152600401600060405180830381600087803b1580156106be57600080fd5b505af11580156106d2573d6000803e3d6000fd5b50505050505050565b60015481565b6106e9610d1e565b600460008381526020019081526020016000206040518060a001604052908160008201548152602001600182018054600181600116156101000203166002900480601f0160208091040260200160405190810160405280929190818152602001828054600181600116156101000203166002900480156107aa5780601f1061077f576101008083540402835291602001916107aa565b820191906000526020600020905b81548152906001019060200180831161078d57829003601f168201915b50505050508152602001600282015481526020016003820160009054906101000a900473ffffffffffffffffffffffffffffffffffffffff1673ffffffffffffffffffffffffffffffffffffffff1673ffffffffffffffffffffffffffffffffffffffff1681526020016003820160149054906101000a900460ff1615151515815250509050600081606001519050600082600001511180156108535750600354826000015111155b61085c57600080fd5b816040015134101561086d57600080fd5b81608001511561087c57600080fd5b3373ffffffffffffffffffffffffffffffffffffffff168173ffffffffffffffffffffffffffffffffffffffff1614156108b557600080fd5b33826060019073ffffffffffffffffffffffffffffffffffffffff16908173ffffffffffffffffffffffffffffffffffffffff168152505060018260800190151590811515815250508160046000858152602001908152602001600020600082015181600001556020820151816001019080519060200190610938929190610c91565b506040820151816002015560608201518160030160006101000a81548173ffffffffffffffffffffffffffffffffffffffff021916908373ffffffffffffffffffffffffffffffffffffffff16021790555060808201518160030160146101000a81548160ff0219169083151502179055509050508073ffffffffffffffffffffffffffffffffffffffff166108fc349081150290604051600060405180830381858888f193505050501580156109f3573d6000803e3d6000fd5b507f9d40c58bd4355dfe050386440843ad5a64461315c71a745efa097b24e352b7f16003548360200151846040015133600160405180868152602001806020018581526020018473ffffffffffffffffffffffffffffffffffffffff1673ffffffffffffffffffffffffffffffffffffffff16815260200183151515158152602001828103825286818151815260200191508051906020019080838360005b83811015610aad578082015181840152602081019050610a92565b50505050905090810190601f168015610ada5780820380516001836020036101000a031916815260200191505b50965050505050505060405180910390a16001600081548092919060010191905055506000604051610b0b90610d11565b604051809103906000f080158015610b27573d6000803e3d6000fd5b5090508073ffffffffffffffffffffffffffffffffffffffff16633ccfd60b6040518163ffffffff1660e01b8152600401600060405180830381600087803b158015610b7257600080fd5b505af1158015610b86573d6000803e3d6000fd5b5050505050505050565b60035481565b6004602052806000526040600020600091509050806000015490806001018054600181600116156101000203166002900480601f016020809104026020016040519081016040528092919081815260200182805460018160011615610100020316600290048015610c485780601f10610c1d57610100808354040283529160200191610c48565b820191906000526020600020905b815481529060010190602001808311610c2b57829003601f168201915b5050505050908060020154908060030160009054906101000a900473ffffffffffffffffffffffffffffffffffffffff16908060030160149054906101000a900460ff16905085565b828054600181600116156101000203166002900490600052602060002090601f016020900481019282601f10610cd257805160ff1916838001178555610d00565b82800160010185558215610d00579182015b82811115610cff578251825591602001919060010190610ce4565b5b509050610d0d9190610d65565b5090565b61012480610d8b83390190565b6040518060a00160405280600081526020016060815260200160008152602001600073ffffffffffffffffffffffffffffffffffffffff1681526020016000151581525090565b610d8791905b80821115610d83576000816000905550600101610d6b565b5090565b9056fe608060405260008060006101000a81548160ff02191690831515021790555034801561002a57600080fd5b5060eb806100396000396000f3fe6080604052348015600f57600080fd5b5060043610603c5760003560e01c80633ccfd60b14604157806375f12b21146049578063d0e30db0146069575b600080fd5b60476071565b005b604f608a565b604051808215151515815260200191505060405180910390f35b606f609c565b005b6000809054906101000a900460ff16608857600080fd5b565b6000809054906101000a900460ff1681565b6000809054906101000a900460ff161560b457600080fd5b56fea265627a7a72315820b4556946efd964e22911a6ddf1cba7d9dbd3037364329b53dfd382e14c72b6f264736f6c63430005100032a265627a7a72315820ef79ecd7f258d935997354ef8c629f55972acf2778fe994358cad7d6bcb8035b64736f6c63430005100032",
  "source": "pragma solidity ^0.5.0;\nimport \"./SafeMath.sol\";\nimport \"./CircuitBreaker.sol\";\n\ncontract Marketplace {\n    \n    using SafeMath for uint256;\n    uint256 public nbCreatedPortrait = 0;\n    uint256 public nbPurchasedPortrait = 0;\n\n    string public name;\n    uint public portraitCount = 0;\n    mapping(uint => Portrait) public portraits;\n\n    struct Portrait {\n        uint id;\n        string name;\n        uint price;\n        address payable owner;\n        bool purchased;\n    }\n\n    event PortraitCreated(\n        uint id,\n        string name,\n        uint price,\n        address payable owner,\n        bool purchased\n    );\n\n    event PortraitPurchased(\n        uint id,\n        string name,\n        uint price,\n        address payable owner,\n        bool purchased\n    );\n\n    constructor() public {\n        name = \"Portrait Marketplace\";\n    }\n\n    function createPortrait(string memory _name, uint _price) public {\n        // Require a valid name\n        require(bytes(_name).length > 0);\n        // Require a valid price\n        require(_price > 0);\n        // Increment portrait count\n        portraitCount ++;\n        // Create the portrait\n        portraits[portraitCount] = Portrait(portraitCount, _name, _price, msg.sender, false);\n        // Trigger an event\n        emit PortraitCreated(portraitCount, _name, _price, msg.sender, false);\n        nbCreatedPortrait++;\n        CircuitBreaker cb = new CircuitBreaker();\n        cb.deposit();\n    }\n\n    function purchasePortrait(uint _id) public payable {\n        // Fetch the portrait\n        Portrait memory _portrait = portraits[_id];\n        // Fetch the owner\n        address payable _seller = _portrait.owner;\n        // Make sure the portrait has a valid id\n        require(_portrait.id > 0 && _portrait.id <= portraitCount);\n        // Require that there is enough Ether in the transaction\n        require(msg.value >= _portrait.price);\n        // Require that the portrait has not been purchased already\n        require(!_portrait.purchased);\n        // Require that the buyer is not the seller\n        require(_seller != msg.sender);\n        // Transfer ownership to the buyer\n        _portrait.owner = msg.sender;\n        // Mark as purchased\n        _portrait.purchased = true;\n        // Update the portrait\n        portraits[_id] = _portrait;\n        // Pay the seller by sending them Ether\n        address(_seller).transfer(msg.value);\n        // Trigger an event\n        emit PortraitPurchased(portraitCount, _portrait.name, _portrait.price, msg.sender, true);\n        nbPurchasedPortrait++;\n        CircuitBreaker cb = new CircuitBreaker();\n        cb.withdraw();\n    }\n}\n",
  "sourcePath": "C:/Users/Rosie/Desktop/marketplace/src/contracts/Marketplace.sol",
  "compiler": {
    "name": "solc",
    "version": "0.5.16+commit.9c3226ce.Emscripten.clang"
  },
  "schemaVersion": "3.3.2",
  "updatedAt": "2020-12-30T21:14:39.894Z",
  "networkType": "ethereum",
  "devdoc": {
    "methods": {}
  },
  "userdoc": {
    "methods": {}
  }
}